:020000040800F2
:10000000000002202D1A0008B5190008B7190008D1
:10001000B9190008BB190008BD190008000000004C
:10002000000000000000000000000000BF190008F0
:10003000C119000800000000C3190008C519000814
:100040007D1A00087D1A00087D1A00087D1A000834
:100050007D1A00087D1A00087D1A00087D1A000824
:100060007D1A00087D1A00087D1A00087D1A000814
:100070007D1A00087D1A00087D1A00087D1A000804
:10008000D11900087D1A00087D1A00080000000040
:100090000000000000000000000000007D1A0008C1
:1000A0007D1A00087D1A00087D1A00087D1A0008D4
:1000B0007D1A00087D1A00087D1A00087D1A0008C4
:1000C0007D1A00087D1A00087D1A00087D1A0008B4
:1000D0007D1A00087D1A00087D1A00080000000043
:1000E0007D1A00087D1A00087D1A00080000000033
:1000F0000000000000000000000000007D1A000861
:10010000000000007D1A00087D1A00087D1A000812
:1001100000000000000000000000000000000000DF
:100120007D1A00087D1A00087D1A00087D1A000853
:100130007D1A000800000000000000000000000020
:100140000000000000000000000000007D1A000810
:100150007D1A00087D1A00087D1A00087D1A000823
:100160007D1A00087D1A0008000000000000000051
:10017000000000000000000000000000000000007F
:10018000000000007D1A00080000000000000000D0
:080190007D1A00087D1A000829
:1001980010B5054C237833B9044B13B10448AFF3B9
:1001A80000800123237010BD0C0000200000000017
:1001B800C81A000808B5034B1BB103490348AFF33D
:1001C800008008BD0000000010000020C81A0008C8
:1001D80053B94AB9002908BF00281CBF4FF0FF31A6
:1001E8004FF0FF3000F072B9ADF1080C6DE904CEA4
:1001F80000F006F8DDF804E0DDE9022304B07047FA
:100208002DE9F047089E04468846002B4BD18A42C8
:10021800154667D9B2FA82F24AB1C2F1200701FA4B
:1002280002F320FA07F7954047EA030894404FEA9B
:10023800154E230CB8FBFEF71FFA85FC0EFB17883A
:1002480043EA084307FB0CF1994209D9EB1807F177
:10025800FF3080F01B81994240F21881023F2B4405
:100268005B1AA4B2B3FBFEF00EFB103344EA03445E
:1002780000FB0CFCA44509D92C1900F1FF3380F0D0
:100288000781A44540F2048102382C4440EA074023
:10029800A4EB0C0400271EB1D4400023C6E9004398
:1002A8003946BDE8F0878B4209D9002E00F0EB8073
:1002B8000027C6E9000138463946BDE8F087B3FA99
:1002C80083F7002F47D18B4202D3824200F2FA8093
:1002D800841A61EB030301209846002EE0D0C6E99A
:1002E8000048DDE702B9FFDEB2FA82F2002A40F0E8
:1002F8008F80491B4FEA154E1FFA85F80127B1FB7D
:10030800FEFC230C0EFB1C1143EA014308FB0CF115
:10031800994207D9EB180CF1FF3002D2994200F24A
:10032800CD808446591AA3B2B1FBFEF00EFB10141F
:1003380043EA044408FB00F8A04507D92C1900F14A
:10034800FF3302D2A04500F2B6801846A4EB080499
:1003580040EA0C409FE7C7F1200CBB4022FA0CFE94
:100368004EEA030E01FA07F420FA0CF521FA0CF311
:100378004FEA1E482543B3FBF8F92C0C08FB193348
:100388001FFA8EFA44EA034309FB0AF49C4202FA74
:1003980007F200FA07F10BD91EEB030309F1FF304E
:1003A80080F087809C4240F28480A9F1020973445E
:1003B8001B1BADB2B3FBF8F008FB103345EA03444E
:1003C80000FB0AFAA24508D91EEB040400F1FF332A
:1003D8006BD2A24569D90238744440EA0940A0FBAF
:1003E8000289A4EB0A044C45C2464B4654D351D06B
:1003F800002E69D0B1EB0A0564EB030404FA0CFC87
:10040800FD40FC404CEA0505C6E90054002747E7D3
:10041800C2F1200320FA03F7954001FA02F021FA0D
:1004280003F34FEA154E3843010CB3FBFEF71FFAEE
:1004380085F80EFB173341EA034107FB08F38B42AB
:1004480004FA02F407D9691807F1FF3C2FD28B424E
:100458002DD9023F2944CB1A81B2B3FBFEF00EFB23
:10046800103341EA034100FB08F38B4207D96918AE
:1004780000F1FF3C17D28B4215D902382944C91A1A
:1004880040EA07473BE73746304609E70746E7E6CD
:100498001846FBE64145ABD2B8EB020A69EB0E02FF
:1004A80001381346A4E76046E9E7184695E767462A
:1004B800D1E781467CE702382C4447E7ACF1020CCF
:1004C8002B442FE7384608E73746E9E6704700BF70
:1004D80010B504460E4B18784FF47A73B3FBF0F35B
:1004E8000C4A1068B0FBF3F000F094F868B90F2CD0
:1004F80001D901200AE0002221464FF0FF3000F028
:1005080049F8034B5C60002000E0012010BD00BFEB
:10051800000000200800002008B50B4B1A6842F4C0
:1005280000721A601A6842F480621A601A6842F40B
:1005380080721A60032000F01BF80020FFF7C8FF44
:1005480001F0A0F9002008BD003C0240034A1168F0
:10055800034B1B780B441360704700BF2800002032
:1005680000000020014B1868704700BF28000020D9
:10057800074AD36823F4E0631B041B0C000200F451
:10058800E060184340F0BF6040F40030D06070472E
:1005980000ED00E030B4174BDB68C3F30223C3F16E
:1005A8000704042C28BF04241D1D062D18D9033B5D
:1005B8004FF0FF3505FA04F421EA0401994005FAE1
:1005C80003F322EA0303194300280BDB0901C9B22C
:1005D80000F1604000F5614080F8001330BC7047BE
:1005E8000023E5E700F00F000901C9B2024B1954D6
:1005F800F4E700BF00ED00E014ED00E000F01F029A
:10060800400901239340024A42F82030704700BF56
:1006180000E100E00138B0F1807F0AD2064B586053
:10062800064AF02182F823100020986007221A60F9
:1006380070470120704700BF10E000E000ED00E0C7
:10064800042805D0054A136823F004031360704793
:10065800024A136843F004031360704710E000E097
:10066800704708B5FFF7FCFF08BD30B405682C6873
:1006780024F480242C60046863608368402B05D0D0
:10068800036899600368DA6030BC704703689A6051
:100698000368D960F8E700000268D3B2103B0B4941
:1006A800A1FB03131B090A49C95CC165032B06D8C2
:1006B80022F47F7222F003028265806D704722F473
:1006C8007F7222F0030204328265F6E7ABAAAAAA77
:1006D800E01A0008836A826992B9012B0AD01BB11B
:1006E800022B01D000207047C36A13F0807F2CD101
:1006F80000207047C36AB3F1C07F28D0002070473C
:10070800B2F5005F05D0022B29D9032B15D00020A4
:100718007047032B03D8DFE803F01C041C0A0020F1
:100728007047C36A13F0807F15D100207047C36AF1
:10073800B3F1C07F11D000207047C36A13F0807FE7
:1007480001D0012070470020704701207047012028
:100758007047012070470120704701207047012031
:100768007047000070B50446FFF7FCFE002C5BD014
:100778000546002384F83430022384F83530226893
:10078800136823F00103136023681A6812F0010F3D
:100798000AD0FFF7E7FE401B0528F5D9202363653B
:1007A800032084F8350070BD1A682048104061683D
:1007B800A2680A43E1680A4321690A4361690A4356
:1007C800A1690A43E1690A43216A0A430243616A4B
:1007D80004291ED01A602668756925F00705636A22
:1007E8001D43042B07D1A36A1D43E36A1BB12046AE
:1007F800FFF770FF90B975612046FFF74DFFE26D76
:100808003F239340836000206065012384F83530DE
:10081800C9E7E16A206B01430A43DBE740236365CC
:10082800012084F83500BEE70120BCE73F8010F0C6
:1008380038B5856D90F83440012C31D0012480F80A
:10084800344090F83540E4B2012C04D0002380F8FD
:100858003430022038BD0446022084F835000020D8
:1008680060652046FFF701FFE26D3F239340AB60D0
:100878002268136843F0160313602268536943F033
:1008880080035361236C23B12268136843F0080383
:1008980013602268136843F0010313600020D9E74E
:1008A8000220D7E7F0B583B0044600230193724BCA
:1008B8001D68724BA3FB0535AD0A876D3E68C26D96
:1008C80008239340334210D003681A6812F0040FCB
:1008D8000BD01A6822F004021A60C26D08239340F4
:1008E800BB60436D43F001034365E26D0123934010
:1008F800334209D02268526912F0800F04D0BB60DD
:10090800636D43F002036365E26D04239340334251
:1009180009D02268126812F0020F04D0BB60636D20
:1009280043F004036365E26D10239340334224D0FF
:100938002268126812F0080F1FD0BB6023681A687B
:1009480012F4802F0DD01B6813F4002F04D1236CF0
:100958009BB12046984710E0A36C73B12046984796
:100968000BE01A6812F4807F03D11A6822F008029B
:100978001A60236C0BB120469847E26D2023934000
:10098800334255D02268126812F0100F50D0BB6065
:1009980094F83530DBB2052B0ED023681A6812F4B0
:1009A800802F33D01B6813F4002F2AD1636C002BDF
:1009B8003ED0204698473BE02268136823F0160390
:1009C80013602268536923F080035361236CA3B139
:1009D8002268136823F008031360E26D3F239340F5
:1009E800BB60002384F83430012384F83530236D4C
:1009F800002B3FD0204698473CE0A36C002BE7D162
:100A0800EBE7E36BA3B12046984711E01A6812F4AC
:100A1800807F09D11A6822F010021A60002384F836
:100A28003430012384F83530E36B0BB12046984706
:100A3800636DFBB1636D13F0010F17D0052384F8C4
:100A480035302268136823F001031360019B0133DA
:100A58000193AB4204D823681B6813F0010FF5D14A
:100A6800002384F83430012384F83530E36C0BB16B
:100A78002046984703B0F0BD08000020B5814E1B02
:100A880000230F2B00F2C580F0B482B039E00422B5
:100A980000E00022B2403A4302345E4E46F8242079
:100AA8005D4A1468EA4302EA04064F6817F4803F77
:100AB80001D045EA0406584C2660646802EA040638
:100AC8004F6817F4003F01D045EA0406524C6660AF
:100AD800A46802EA04064F6817F4801F01D045EAAB
:100AE80004064D4CA660E46822404E6816F4001FC8
:100AF80001D045EA0402484CE26001330F2B00F2B2
:100B0800858001229A400C6804EA0205AA42F4D1C1
:100B18004C68022C01D0122C10D1DE08083650F88F
:100B280026C003F00704A7000F24BC402CEA040CDD
:100B38000C69BC4044EA0C0440F8264004685F0095
:100B48000326BE40F64306EA040C4C6804F003048E
:100B5800BC4044EA0C0404604C6804F1FF3CBCF15E
:100B6800010F03D9112C01D0122C10D1846806EA88
:100B7800040CCC68BC4044EA0C048460446824EA51
:100B880002024C68C4F300149C4014434460C268D9
:100B980016408A68BA403243C2604A6812F0805FE1
:100BA800ABD0002201921D4A546C44F48044546432
:100BB800526C02F480420192019A9C08A61C154AC4
:100BC80052F8267003F0030296000F22B24027EA7B
:100BD8000207134A90423FF45CAF02F580629042EC
:100BE8000ED002F5806290420CD002F580629042ED
:100BF8000AD002F5806290423FF449AF072249E7E4
:100C0800012247E7022245E7032243E702B0F0BC8E
:100C18007047704700380140003C014000380240EE
:100C280000000240002800F0BB8170B582B0044685
:100C3800036813F0010F3BD0A74B9B6803F00C032C
:100C4800042B2CD0A44B9B6803F00C03082B21D059
:100C58006368B3F5803F4FD0B3F5A02F52D09E4BB9
:100C68001A6822F480321A601A6822F480221A6004
:100C78006368002B50D0FFF775FC0546964B1B6840
:100C880013F4003F14D1FFF76DFC401B6428F5D91D
:100C980003208AE1904B5B6813F4800FD8D08E4B09
:100CA8001B6813F4003F03D06368002B00F07A81BF
:100CB800236813F0020F55D0874B9B6813F00C0F75
:100CC8003ED0854B9B6803F00C03082B33D0E368B8
:100CD800002B68D0814B01221A60FFF743FC0546C0
:100CE8007D4B1B6813F0020F54D1FFF73BFC401BF0
:100CF8000228F5D9032058E1774A136843F4803372
:100D08001360B5E7744B1A6842F480221A601A68B7
:100D180042F480321A60ABE7FFF724FC05466E4BBD
:100D28001B6813F4003FC3D0FFF71CFC401B64286A
:100D3800F5D9032039E1684B5B6813F4800FC6D1FD
:100D4800654B1B6813F0020F04D0E368012B01D038
:100D580001202AE1604A136823F0F803216943EA75
:100D6800C1031360236813F0080F40D0636963B3AD
:100D78005B4B01221A60FFF7F5FB0546564B5B6F8C
:100D880013F0020F33D1FFF7EDFB401B0228F5D912
:100D980003200AE1504A136823F0F803216943EA63
:100DA800C1031360DEE74D4B00221A60FFF7DAFB40
:100DB8000546494B1B6813F0020FD3D0FFF7D2FB4F
:100DC800401B0228F5D90320EFE0454B00221A60AA
:100DD800FFF7C8FB0546404B5B6F13F0020F06D0C8
:100DE800FFF7C0FB401B0228F5D90320DDE023688C
:100DF80013F0040F79D0384B1B6C13F0805F33D19C
:100E080000230193344B1A6C42F080521A641B6C15
:100E180003F080530193019B0125324B1B6813F4A7
:100E2800807F23D0A368012B34D0052B38D02A4BE0
:100E38001A6F22F001021A671A6F22F004021A6769
:100E4800A368002B36D0FFF78DFB0646224B1B6F9D
:100E580013F0020F48D1FFF785FB801B41F288335E
:100E68009842F3D90320A0E00025D6E71D4A13686D
:100E780043F480731360FFF775FB0646194B1B6834
:100E880013F4807FCED1FFF76DFB801B0228F5D9C4
:100E980003208AE0104A136F43F001031367CFE77A
:100EA8000D4B1A6F42F004021A671A6F42F00102E2
:100EB8001A67C5E7FFF756FB0646074B1B6F13F08B
:100EC800020F11D0FFF74EFB801B41F28833984286
:100ED800F3D9032069E000BF003802400000474210
:100EE800800E474200700040E5B9A369002B5BD033
:100EF800304A926802F00C02082A58D0022B17D008
:100F08002D4B00221A60FFF72DFB0446294B1B6866
:100F180013F0007F42D0FFF725FB001B0228F5D90C
:100F2800032042E0234A136C23F080531364DCE768
:100F3800214B00221A60FFF715FB05461D4B1B6865
:100F480013F0007F06D0FFF70DFB401B0228F5D9F0
:100F580003202AE0E369226A1343626A43EA8213A0
:100F6800A26A5208013A43EA0243E26A43EA026388
:100F7800104A5360104B01221A60FFF7F3FA044637
:100F88000C4B1B6813F0007F06D1FFF7EBFA001B30
:100F98000228F5D9032008E0002006E0002004E03C
:100FA80001207047012000E0002002B070BD012040
:100FB800FBE700BF0038024060004742264B9B68B1
:100FC80003F00C03042B44D0082B01D023487047AE
:100FD8002DE9F04B204B5A6802F03F025B6813F48E
:100FE800800F13D01C4B5968C1F3881100231C488B
:100FF800A1FB0001FFF7ECF8174B5B68C3F3014353
:1010080001335B00B0FBF3F0BDE8F08B124B5B687B
:10101800C3F388131E4600275C010025E41A65EB1C
:101028000705A90141EA9461A001001B61EB0501D4
:10103800CB0043EA5073C400A01943EB07018B02AD
:1010480043EA90538402204619460023FFF7C0F86C
:10105800D2E70348704700BF003802400024F4007C
:1010680040787D01002800F09D8070B504464F4B04
:101078001B6803F00F038B4209D2CBB24B4A1370A3
:10108800136803F00F038B4201D0012070BD236861
:1010980013F0020F17D013F0040F04D0444A9368DA
:1010A80043F4E0539360236813F0080F04D0404AD8
:1010B800936843F4604393603D4A936823F0F003D8
:1010C800A068034393600D46236813F0010F32D0E4
:1010D8006368012B21D09A1E012A25D9344A126847
:1010E80012F0020F60D032498A6822F003021343DB
:1010F8008B60FFF737FA06462D4B9B6803F00C030D
:101108006268B3EB820F16D0FFF72CFA801B41F20E
:1011180088339842F0D90320B8E7254A126812F4B8
:10112800003FE0D10120B1E7214A126812F0007FA8
:10113800D9D10120AAE71D4B1B6803F00F03AB426E
:1011480009D9EAB2194B1A701B6803F00F03AB42B6
:1011580001D001209AE7236813F0040F06D0144A3F
:10116800936823F4E053E1680B439360236813F01A
:10117800080F07D00E4A936823F46043216943EAB5
:10118800C1039360FFF71AFF094B9B68C3F303136E
:10119800084AD35CD840084B18600020FFF798F93C
:1011A800002073E70120704701206FE7003C0240F0
:1011B80000380240E81A000808000020014B1868AF
:1011C800704700BF0800002008B5FFF7F7FF044B81
:1011D8009B68C3F38223034AD35CD84008BD00BF91
:1011E80000380240F81A000808B5FFF7E7FF044B7B
:1011F8009B68C3F34233034AD35CD84008BD00BFA1
:1012080000380240F81A00080268D36823F0C003C7
:10121800D360202380F8393070470268D36823F4FC
:101228009073D3600268536923F00103536120234C
:1012380080F83A30704700002DE9F8430446016809
:101248000A6922F44052C36813430B610168CA68F3
:1012580022F4164222F00C02836800690343606995
:101268000343E06903431343CB6021684A6922F4CE
:101278004072A36913434B61E369B3F5004F60D033
:101288002368B84A934200F0148102F580629342C1
:1012980000F00F81FFF798FF00EB800000EB800063
:1012A8006568AD00B0FBF5F5AF4FA7FB05356D09D7
:1012B8002E01FFF789FF00EB800000EB80006568D6
:1012C800AD00B0FBF5F9FFF77FFF00EB800000EB06
:1012D80080006568AD00B0FBF5F5A7FB05356D0925
:1012E8004FF0640808FB15952D013235A7FB05352D
:1012F8006D0905F0F0053544FFF766FF00EB800047
:1013080000EB80006668B600B0FBF6F6FFF75CFFFE
:1013180000EB800000EB800063689B00B0FBF3F0FB
:10132800A7FB0030400908FB10684FEA081808F1CD
:101338003208A7FB0837C7F3431723682F449F6079
:101348000DE12368874A93425BD002F5806293429D
:1013580057D0FFF739FF00EB800000EB800065688D
:101368006D00B0FBF5F5804FA7FB05356D092E0123
:10137800FFF72AFF00EB800000EB800065686D0036
:10138800B0FBF5F9FFF720FF00EB800000EB8000D1
:1013980065686D00B0FBF5F5A7FB05356D094FF0E5
:1013A800640808FB1595ED003235A7FB05356D0976
:1013B8006D0005F4F8753544FFF706FF00EB800073
:1013C80000EB800066687600B0FBF6F6FFF7FCFEDF
:1013D80000EB800000EB800063685B00B0FBF3F378
:1013E800A7FB03235B0908FB13684FEAC80808F149
:1013F8003208A7FB0837C7F3421723682F449F60BA
:10140800ADE0FFF7F1FE00EB800000EB80006568BF
:101418006D00B0FBF5F5544FA7FB05356D092E019E
:10142800FFF7E2FE00EB800000EB800065686D00CE
:10143800B0FBF5F9FFF7D8FE00EB800000EB800069
:1014480065686D00B0FBF5F5A7FB05356D094FF034
:10145800640808FB1595ED003235A7FB05356D09C5
:101468006D0005F4F8753544FFF7BEFE00EB80000B
:1014780000EB800066687600B0FBF6F6FFF7B4FE76
:1014880000EB800000EB800063685B00B0FBF3F3C7
:10149800A7FB03235B0908FB13684FEAC80808F198
:1014A8003208A7FB0837C7F3421723682F449F6009
:1014B80055E0FFF799FE00EB800000EB80006568BF
:1014C800AD00B0FBF5F5284FA7FB05356D092E01DA
:1014D800FFF78AFE00EB800000EB80006568AD0036
:1014E800B0FBF5F9FFF780FE00EB800000EB800011
:1014F8006568AD00B0FBF5F5A7FB05356D094FF044
:10150800640808FB15952D013235A7FB05356D09D3
:1015180005F0F0053544FFF767FE00EB800000EBAF
:1015280080006668B600B0FBF6F6FFF75DFE00EBDC
:10153800800000EB800063689B00B0FBF3F0A7FB22
:101548000030400908FB10684FEA081808F1320813
:10155800A7FB0837C7F3431723682F449F60BDE8EC
:10156800F88300BF001001401F85EB5158B310B538
:10157800044690F839300BB3242384F839302268B4
:10158800D36823F40053D3602046FFF755FE226842
:10159800136923F4904313612268536923F02A03E3
:1015A80053612268D36843F40053D3600020E0639A
:1015B800202384F8393084F83A3010BD80F8383068
:1015C80000F0AAF9D8E701207047000030B583B0D1
:1015D80090F83A40E4B2202C3DD100293ED0002AB0
:1015E8003ED090F83830012B3CD013460A460446CA
:1015F800012180F83810826283850025C563222185
:1016080080F83A10416B1848C863616B1748086442
:10161800616B1748C864616B0D6521680431606BA4
:10162800FFF706F9019523681A6801925A68019232
:10163800019A84F83850DA6842F48072DA602268D5
:10164800536943F0010353612268536943F040032F
:101658005361284600E0022003B030BD0120FBE7BB
:101668000120F9E70220F7E77D160008BD160008FB
:10167800C916000808B5836B0268126812F4807FE7
:1016880013D10022DA851968CA6822F48072CA6008
:1016980019684A6922F001024A6119684A6922F008
:1016A80040024A61202283F83A20184600F060F888
:1016B80008BD704708B5806BFFF7FBFF08BD704792
:1016C80010B5846B23685A6994F83930DBB2212B42
:1016D80010D023685A6902F0400294F83A30DBB21D
:1016E800222B11D0E36B43F01003E3632046FFF78E
:1016F800E6FF10BD02F08002002AEAD00023E3844E
:101708002046FFF781FDE4E7002AEBD00023E385BC
:101718002046FFF782FDE5E782B000230193064BE0
:101728001A6B42F001021A631B6B03F00103019369
:10173800019B02B0704700BF0038024000B583B07B
:1017480000210191094B1A6B42F400121A631B6BBA
:1017580003F400130193019B0A461020FEF71AFFB9
:101768001020FEF74BFF03B05DF804FB0038024081
:101778007047FEE708B50B480B4B03604FF4E133A5
:10178800436000238360C36003610C22426183616C
:10179800C361FFF7EBFE00B908BDC3210348FFF79B
:1017A800E8FF00BF8C00002000440040001B000838
:1017B80000B595B000230193234A116C41F0805184
:1017C8001164126C02F080520192019A02931F4A2E
:1017D800116841F440411160126802F440420292DB
:1017E800029A0222089201220B9210220C920E9366
:1017F80008A8FFF717FAF0B90F2303930021049103
:1018080005910691079103A8FFF72CFCB8B9FFF7DB
:10181800D5FC0F4BA3FB00308009FEF7FBFE04202C
:10182800FEF70EFF002211464FF0FF30FEF7B2FE22
:1018380015B05DF804FB98210648FFF79AFFA6212A
:101848000448FFF796FF00BF0038024000700040D0
:10185800D34D6210001B000808B5FEF75DFEFFF7C8
:10186800A7FFFFF759FFFFF769FFFFF783FF642220
:1018780002490348FFF7AAFEF9E700BF0008002065
:101888008C00002010B582B000240094214B5A6CC3
:1018980042F480425A645A6C02F480420092009AE0
:1018A80001941A6C42F080521A641B6C03F0805346
:1018B8000193019B0320FEF75BFE224621466FF051
:1018C8000B00FEF767FE224621466FF00A00FEF77E
:1018D80061FE224621466FF00900FEF75BFE2246B4
:1018E80021466FF00400FEF755FE224621466FF0B0
:1018F8000300FEF74FFE224621466FF00100FEF777
:1019080049FE224621464FF0FF30FEF743FE02B063
:1019180010BD00BF0038024002681F4B9A4200D039
:10192800704730B587B004460025009503F5FA33B3
:101938001A6C42F400321A641B6C03F400330093EF
:10194800009B0C2301930223029301230393032397
:1019580004930723059301A91048FFF791F810484D
:10196800104B03604FF0006343608560C5604FF41F
:101978008063036145618561C56105624562FEF763
:10198800F1FE20B9064B63639C6307B030BD772135
:101998000548FFF7EEFEF5E700440040000002406E
:1019A8002C00002088600240101B00087047FEE7EA
:1019B800FEE7FEE7FEE770477047704708B5FEF799
:1019C800C5FDFEF74EFE08BD08B50248FEF76AFFE2
:1019D80008BD00BF2C0000200F49D1F8883043F41F
:1019E8007003C1F888300D4B1A6842F001021A6082
:1019F800002098601A6822F0847222F480321A60FB
:101A0800074A5A601A6822F480221A60D8604FF098
:101A180000638B60704700BF00ED00E000380240B3
:101A280010300024DFF834D0002103E00C4B5B5861
:101A3800435004310B480C4B42189A42F6D30B4AD8
:101A480002E0002342F8043B094B9A42F9D3FFF71E
:101A5800C3FF00F011F8FFF7FFFE704700000220F7
:101A68003C1B0008000000200C0000200C00002097
:101A7800CC000020FEE7000070B50D4E0D4CA41BF5
:101A8800A4100025A54209D10B4E0C4C00F018F803
:101A9800A41BA4100025A54205D170BD56F8253019
:101AA80098470135EEE756F8253098470135F2E7B3
:101AB800341B0008341B0008341B0008381B0008BE
:101AC800F8B500BFF8BC08BC9E467047F8B500BF23
:081AD800F8BC08BC9E467047F3
:101AE000000610160006101600000000000000009E
:101AF00001020304060708090000000001020304B4
:101B00002E2E2F5372632F6D61696E2E63000000BD
:101B10002E2E2F5372632F73746D333266347878A0
:0C1B20005F68616C5F6D73702E630000E5
:081B2C00DCE6FF7F0100000070
:041B3400BD010008E7
:041B38009901000807
:0C1B3C0001000000100000000024F40074
:0400000508001A2DA8
:00000001FF
